:100000000C9463000C948B000C948B000C948B006C
:100010000C948B000C948B000C948B000C948B0034
:100020000C948B000C948B000C948B000C948B0024
:100030000C948B000C948B000C948B000C948B0014
:100040000C94CC010C948B000C943C020C94160282
:100050000C948B000C948B000C948B000C948B00F4
:100060000C948B000C948B000000000023002600F1
:10007000290000000000240027002A0000000000E2
:10008000250028002B0004040404040404040202D4
:100090000202020203030303030301020408102007
:1000A0004080010204081020010204081020000012
:1000B0000008000201000003040700000000000027
:1000C0000000F709F10911241FBECFEFD8E0DEBF11
:1000D000CDBF11E0A0E0B1E0EEEFF9E102C0059084
:1000E0000D92AC35B107D9F722E0ACE5B1E001C023
:1000F0001D92A333B207E1F710E0C2E6D0E004C0DE
:100100002197FE010E94A90AC136D107C9F70E94B2
:1001100082070C94F20C0C940000CF92DF92EF92C5
:10012000FF920F931F93CF93DF936C017A018B01A2
:10013000C0E0D0E0CE15DF0589F0D8016D918D01CA
:10014000D601ED91FC910190F081E02DC601099559
:10015000892B11F47E0102C02196ECCFC701DF91FB
:10016000CF911F910F91FF90EF90DF90CF90089566
:10017000089580E090E00895FC01538D448D252F73
:1001800030E0842F90E0821B930B541710F0CF9631
:10019000089501970895FC01918D828D981761F063
:1001A000828DDF01A80FB11D5D968C91928D9F5FAE
:1001B0009F73928F90E008958FEF9FEF0895FC0159
:1001C000918D828D981731F0828DE80FF11D858D0C
:1001D00090E008958FEF9FEF0895FC01918D228D9F
:1001E000892F90E0805C9F4F821B91098F73992724
:1001F00008958CE791E00E94ED0021E0892B09F43D
:1002000020E0822F0895FC01848DDF01A80FB11D2D
:10021000A35ABF4F2C91848D90E001968F7399273C
:10022000848FA689B7892C93A089B1898C91806429
:100230008C93938D848D981306C00288F389E02DEA
:1002400080818F7D80830895EF92FF920F931F939B
:10025000CF93DF93EC0181E0888F9B8D8C8D981379
:1002600005C0E889F989808185FD24C0F62E0B8DB3
:1002700010E00F5F1F4F0F731127E02E8C8DE812D7
:100280000CC00FB607FCFACFE889F989808185FF99
:10029000F5CFCE010E940301F1CF8B8DFE01E80F57
:1002A000F11DE35AFF4FF0820B8FEA89FB898081B1
:1002B000806207C0EE89FF896083E889F9898081BF
:1002C0008064808381E090E0DF91CF911F910F9156
:1002D000FF90EF900895CF93DF93EC01888D8823F2
:1002E000C9F0EA89FB89808185FD05C0A889B989A3
:1002F0008C9186FD0FC00FB607FCF5CF808185FF7E
:10030000F2CFA889B9898C9185FFEDCFCE010E94EB
:100310000301E7CFDF91CF91089580E090E0892B32
:1003200029F00E94F90081110C9400000895DC016D
:10033000ED91FD91BD010190F081E02D40E0099526
:1003400091E0811190E0892F08950E94A60C3FB79B
:10035000F8948091780190917901A0917A01B091FF
:100360007B0126B5A89B05C02F3F19F00196A11D62
:10037000B11D3FBFBA2FA92F982F8827820F911D3B
:10038000A11DB11DBC01CD0142E0660F771F881F82
:10039000991F4A95D1F708951F920F920FB60F92A9
:1003A00011242F933F938F939F93AF93BF9380918B
:1003B000740190917501A0917601B091770130910F
:1003C000730123E0230F2D3720F40196A11DB11DE9
:1003D00005C026E8230F0296A11DB11D20937301CD
:1003E0008093740190937501A0937601B093770187
:1003F0008091780190917901A0917A01B0917B016F
:100400000196A11DB11D8093780190937901A0936D
:100410007A01B0937B01BF91AF919F918F913F91F2
:100420002F910F900FBE0F901F9018951F920F9253
:100430000FB60F9211242F933F934F935F936F93B7
:100440007F938F939F93AF93BF93EF93FF938CE72B
:1004500091E00E940301FF91EF91BF91AF919F91B5
:100460008F917F916F915F914F913F912F910F905D
:100470000FBE0F901F9018951F920F920FB60F92FC
:1004800011242F938F939F93EF93FF93E0918C010F
:10049000F0918D018081E0919201F091930182FDB4
:1004A00012C09081809195018F5F8F73209196018A
:1004B000821751F0E0919501F0E0E458FE4F958FDE
:1004C0008093950101C08081FF91EF919F918F9161
:1004D0002F910F900FBE0F901F90189508958EBD0D
:1004E00000000DB407FEFDCF8EB508958CBD9DBDF7
:1004F00008951F93CF93DF93EC01162F83E590E0CF
:100500000E94760260E08E850E94CA05812F806875
:100510000E946F0280E00E946F02182F61E08E85BA
:100520000E94CA05812FDF91CF911F910895EF920C
:10053000FF921F93CF93DF931F92CDB7DEB77C015D
:10054000162F83E590E049830E94760260E0F70170
:1005500086850E94CA05812F0E946F024981842FDF
:100560000E946F0261E0F70186850F90DF91CF91C5
:100570001F91FF90EF900C94CA05AF92BF92CF925B
:10058000EF92FF920F931F93CF93DF9300D000D091
:100590001F92CDB7DEB75C0182E08D8340E064E25C
:1005A000C5010E94970240E066E2C5010E949702E1
:1005B00046E268E4C5010E94970286E28C838D8141
:1005C000823038F16CE1C5010E947902482F4F77E3
:1005D0006CE1C5010E94970287E08B83C12CCE019C
:1005E00003967C018E010B5F1F4F9E012F5F3F4FD3
:1005F00041E0BE016C5F7F4FC5010E94350681114D
:100600000BC08D81823039F481E09B81911104C04F
:1006100008C084E001C081E091E0823019F090E0F0
:1006200001C091E0892F0F900F900F900F900F90C5
:10063000DF91CF911F910F91FF90EF90CF90BF90DE
:10064000AF900895CF92DF92EF92FF920F931F9396
:10065000CF93DF93EC016B01142F790140E062E04E
:100660000E94970244E06AE0CE010E94970240E8AF
:1006700064E1CE010E949702A601612FCE010E9483
:10068000FA0543E062E0CE010E94970208E813E118
:100690006AE0CE010E94790282FF13C040E062E06E
:1006A000CE010E94970264E4CE010E947902F70114
:1006B000808362E4CE010E947902F701818380E0A9
:1006C00004C00150110921F783E0DF91CF911F9100
:1006D0000F91FF90EF90DF90CF9008952F923F926F
:1006E0004F925F926F927F928F929F92AF92BF9242
:1006F000CF92DF92EF92FF920F931F93CF93DF93EE
:10070000CDB7DEB72D970FB6F894DEBF0FBECDBFC5
:10071000413508F012C1342E4B015C016CE10E949E
:100720007902482F4F776CE1C5010E94970222247D
:10073000239444244394512C42E0241691F083E006
:100740002816E1F091E02912FCC083E98983332067
:10075000D1F081E0F4019081953008F480E0D12C53
:1007600017C085E98983332081F081E0F40190810D
:10077000983008F480E043E0D42E0AC087E98983EA
:1007800036E0D32E04C0D12C02C023E0D22E80E06C
:10079000532DF8EFDF9E500D112457FD50E08823B4
:1007A00021F098E89B8343E001C042E021E0952FCF
:1007B000977009F420E0952F959595959595290FBB
:1007C00029F4882309F497C0585F95C0811102C0AD
:1007D00094E001C093E0291708F4922F20E030E064
:1007E0006D2D70E0E42FE20FA1E0B0E0AC0FBD1F73
:1007F000AE0FB11DF901E60FF71FE80DF91DE181FC
:10080000EC932F5F3F4F291768F3DBCF8111E5C0D1
:1008100050320CF098C050E240E74A839C818B81B3
:1008200089279D8189279E8189278F839E01285F43
:100830003F4F47E0BE016F5F7F4FC5015D870E945C
:1008400022035D858111C9C01B8683E08A87FE0172
:1008500037963F0179E0CB844C2D4295407F4C0D7B
:100860006AE1C5015D877C870E949702CE010B96E5
:100870007C018E01065F1F4F93017C85472FBE01CF
:100880006F5F7F4FC5010E9435065D85823009F09C
:10089000BDCF6CE1C5010E9479025D8585FD4FC029
:1008A0008F7109F480E2282F30E0452F550F550B4A
:1008B000421753070CF045C0582F822F8595859518
:1008C000859591E0980F422F477081E009F480E010
:1008D000890FE1E0F0E0EC0FFD1FE80FF11D215062
:1008E000310927703327C20101C0880F2A95EAF722
:1008F0009081892B808350320CF08ECF952F97708A
:100900009B87252F25952595259582E0820F392FE8
:10091000F0E18F9F300D11243A8371E0911101C0F5
:1009200070E0780F66246394712C6C0E7D1E680E47
:10093000711C87E0821B8A878ECF86E04EC082E0E2
:100940004CC085E04AC08B81883809F043C033E051
:1009500023E080E090E06D2D70E0FC01E60FF71FD2
:10096000E80DF91D432F480FA1E0B0E0AC0FBD1F0B
:10097000A40FB11D4C9141830196821770F38A85B3
:10098000833021F58B85811121C09E012D5F3F4F62
:1009900041E0B301C5010E94220381111EC09B8169
:1009A000F3018181981314C09C818281981310C037
:1009B000808182FF02C02394BFCEF4018387822D01
:1009C000880F280E2394208280E007C081E005C0B4
:1009D00087E003C032E024E0BCCF2D960FB6F89438
:1009E000DEBF0FBECDBFDF91CF911F910F91FF9062
:1009F000EF90DF90CF90BF90AF909F908F907F90BF
:100A00006F905F904F903F902F900895009769F0FE
:100A1000FC0101900020E9F73197AF01481B590B09
:100A2000BC018CE791E00C948D0080E090E008958B
:100A30000C9406058F929F92AF92BF92CF92DF9255
:100A4000EF92FF920F931F93CF93DF93CDB7DEB753
:100A5000A1970FB6F894DEBF0FBECDBF6B017C012E
:100A600097FF31C0E0917C01F0917D010190F08110
:100A7000E02D6DE28CE791E009958C012227332768
:100A8000A9012C193D094E095F0919A2CE018196D1
:100A90007C019AE0892E912CA12CB12CCA01B901BC
:100AA000A50194010E94870A605DF70162937F01AE
:100AB000211531054105510589F7CF010E94060531
:100AC000800F911F1DC09B01AC0119A28E010F5D0B
:100AD0001F4F8AE0C82ED12CE12CF12CCA01B9019C
:100AE000A70196010E94870A605DF80162938F0159
:100AF000211531054105510589F7CF010E940605F1
:100B0000A1960FB6F894DEBF0FBECDBFDF91CF9197
:100B10001F910F91FF90EF90DF90CF90BF90AF901B
:100B20009F908F900895CF93DF930E940605EC016C
:100B300089E591E00E9406058C0F9D1FDF91CF9102
:100B40000895833081F028F4813099F08230A1F04B
:100B500008958730A9F08830B9F08430D1F48091BD
:100B600080008F7D03C0809180008F77809380000C
:100B7000089584B58F7702C084B58F7D84BD0895B4
:100B80008091B0008F7703C08091B0008F7D8093FB
:100B9000B00008951F93CF93DF93282F30E0F90121
:100BA000E255FF4F8491F901E656FF4FD491F901C8
:100BB000EA57FF4FC491CC23C9F0162F81110E9430
:100BC000A105EC2FF0E0EE0FFF1FE458FF4FA591B9
:100BD000B4918FB7F894111105C09C91ED2FE09559
:100BE000E92302C0EC91ED2BEC938FBFDF91CF9105
:100BF0001F910895CF92DF92EF92FF920F931F9370
:100C0000CF93DF9300D0CDB7DEB78C01F62E83E50E
:100C100090E049835A830E94760260E0F80186855D
:100C20000E94CA0582E10E946F024981E42EC42E0F
:100C30005A81D52E8C2D8E198F1530F4F6018191A5
:100C40006F010E946F02F6CF61E0F80186850E9475
:100C5000CA050F900F90DF91CF911F910F91FF90D8
:100C6000EF90DF90CF900C946E026F927F928F92F4
:100C70009F92AF92BF92CF92DF92EF92FF920F932B
:100C80001F93CF93DF93EC014B01D42E5901380110
:100C9000E114F10419F0F701808101C080E0182F00
:100CA000F0E1CF9E100D112440E062E0CE010E94E1
:100CB00097024FE768E0CE010E94970240E864E1A6
:100CC000CE010E949702A4016D2DCE010E94FA056B
:100CD000412F6AE1CE010E9497024CE062E0CE0112
:100CE0000E9497026AE1CE010E947902482F406873
:100CF0006AE1CE010E94970200ED17E068E0CE01A4
:100D00000E947902982F907339F480FD03C001503E
:100D10001109A1F783E071C06CE0CE010E94790255
:100D2000982E837109F068C0A114B10409F45CC065
:100D30006114710409F458C064E1CE010E94790283
:100D4000182FF3018081811708F452C010831123FA
:100D500009F440C083E590E00E94760260E08E8551
:100D60000E94CA0582E90E946F02CC20A9F08FEF91
:100D700090E09C0102C0220F331FCA94E2F7690180
:100D800082E90E946F028C21C094F5019081C922F2
:100D9000C82AC08201E001C000E01150402F50E09D
:100DA000011750F46501C40ED51E82E90E946F023E
:100DB000F60180830F5FF2CF8501040F151F80E0DD
:100DC0000E946F02F801808361E08E850E94CA054F
:100DD0000E946E0268E1CE010E9479028770E114E0
:100DE000F10411F0F701808393FC04C080E005C09A
:100DF00084E003C082E001C081E0DF91CF911F91C8
:100E00000F91FF90EF90DF90CF90BF90AF909F90A9
:100E10008F907F906F900895CF93DF9390E0FC01C7
:100E2000E656FF4F2491FC01EA57FF4F8491882337
:100E300061F190E0880F991FFC01EE58FF4FC591BA
:100E4000D491FC01E458FF4FA591B491611109C000
:100E50009FB7F8948881209582238883EC912E2374
:100E60000BC0623061F49FB7F8943881822F80956F
:100E700083238883EC912E2B2C939FBF06C08FB7C2
:100E8000F894E8812E2B28838FBFDF91CF910895AE
:100E90008F929F92AF92BF92CF92DF92EF92FF928A
:100EA0006B017C010E94A7014B015C01C114D104BC
:100EB000E104F104F1F00E94A701DC01CB018819E3
:100EC0009909AA09BB09883E9340A105B10570F3B1
:100ED00021E0C21AD108E108F10888EE880E83E00B
:100EE000981EA11CB11CC114D104E104F10419F72E
:100EF000DDCFFF90EF90DF90CF90BF90AF909F90AD
:100F00008F900895789484B5826084BD84B58160A3
:100F100084BD85B5826085BD85B5816085BD8091C4
:100F20006E00816080936E0010928100809181003C
:100F30008260809381008091810081608093810034
:100F4000809180008160809380008091B1008460F6
:100F50008093B1008091B00081608093B000809157
:100F60007A00846080937A0080917A008260809316
:100F70007A0080917A00816080937A0080917A0073
:100F8000806880937A001092C100E0918C01F0910A
:100F90008D0182E08083E0918801F09189011082C7
:100FA000E0918A01F0918B018FEC80831092940183
:100FB000E0919001F091910186E08083E0918E01B3
:100FC000F0918F01808180618083E0918E01F091AA
:100FD0008F01808188608083E0918E01F0918F0184
:100FE000808180688083E0918E01F0918F01808103
:100FF0008F7D8083CFB7F89480915C01811127C0E9
:10100000E0E9F0E08491E4EAF0E09491E82FF0E088
:10101000EE0FFF1FEE58FF4FA591B491EC91E9231D
:1010200021F461E08AE00E94CA0561E08AE00E9442
:101030000C078CB580618CBD8CB580648CBD61E083
:101040008DE00E940C0761E08BE00E940C0780910C
:101050005C018F5F80935C01CFBF61E080912D02C6
:101060000E940C0761E080912D020E94CA058091C8
:101070002E028F3F41F44FE062E08FE192E00E9448
:101080009702C3E025C060E00E940C0720912E0269
:1010900030E0F901E255FF4F8491F901E656FF4F28
:1010A000D491F901EA57FF4FC491CC23F9F0811193
:1010B0000E94A105EC2FF0E0EE0FFF1FE859FF4F53
:1010C000A591B491EC91ED2389F0D5CFC150F1F009
:1010D00062E370E080E090E00E94480762E08FE108
:1010E00092E00E94790284FF11C0F0CF61E080910C
:1010F0002E020E940C0761E080912E020E94CA0518
:1011000062E370E080E090E00E94480740E064E223
:101110008FE192E00E94970240E066E28FE192E068
:101120000E94970246E268E48FE192E00E949702F3
:1011300040E864E58FE192E00E94970249EA66E5A3
:101140008FE192E00E94970243E068E58FE192E030
:101150000E94970248EE6AE58FE192E00E949702B2
:1011600040E46AE28FE192E00E9497024DE362E27E
:101170008FE192E00E94970268E28FE192E00E9484
:101180007902982F9370933039F0482F436068E2CA
:101190008FE192E00E9497028AE291E00E9493051B
:1011A00061E086E00E940C0761E085E00E940C0788
:1011B00061E088E00E940C0768EC70E080E090E05D
:1011C0000E944807AA24A394B12C8FE192E00E94C8
:1011D000BD02882309F402C18FE192E00E949701C9
:1011E000882309F4FBC070912102C0906B01D0905C
:1011F0006C01E0906D01F0906E0180916901909119
:101200006A012091670130916801EFE6F1E0AAE000
:10121000B1E040E050E04717D8F58A01015E1D4F6C
:10122000E8016B8161931D91611701F18A010A5FE9
:101230001E4FE8011881611701F1C0926B01D09235
:101240006C01E0926D01F0926E0190936A018093BF
:101250006901309368012093670160E085E00E9496
:10126000CA0561E086E00E94CA05AAC080E090E05D
:10127000C12CD12C7601C39407C081E090E062E0DC
:10128000C62ED12CE12CF12C4F5F5F4F9C01C3CFB8
:10129000C0926B01D0926C01E0926D01F0926E01F0
:1012A00090936A01809369013093680120936701EC
:1012B000880F991FFC01ED59FE4F8081918181308B
:1012C000910559F5F901EE0FFF1FE15AFE4F4081DC
:1012D0005181452B09F061C09183808389E491E0BD
:1012E0000E94180560916B0170916C0180916D01F5
:1012F00090916E010E941A0582E591E00E94180506
:101300008BE591E00E94180582E591E00E941805A6
:1013100084E591E00E9493054DC0892BF1F5B182DF
:10132000A08280915D0190915E01019690935E0193
:1013300080935D0189E491E00E94180560916B0142
:1013400070916C0180916D0190916E010E941A055F
:1013500082E591E00E94180584E591E00E9418055D
:1013600082E591E00E9418058BE591E00E949305CB
:1013700061E085E00E94CA0560E086E00E94CA053F
:1013800061E088E00E94CA056EE170E080E090E0D4
:101390000E94480760E088E00BC0220F331FF9016C
:1013A000E15AFE4F80819181019721F461E086E04E
:1013B0000E94CA0568EE73E080E090E00E94480752
:1013C00060ED77E080E090E00E94480760E085E013
:1013D0000E94CA0560E086E00E94CA050E948D0155
:1013E000F4CE8091190290911A020C94440B109241
:1013F0007F0110927E0188EE93E0A0E0B0E0809340
:10140000800190938101A0938201B093830182E1D6
:1014100091E090937D0180937C0185EC90E0909326
:1014200089018093880184EC90E090938B018093F4
:101430008A0180EC90E090938D0180938C0181EC87
:1014400090E090938F0180938E0182EC90E09093D6
:1014500091018093900186EC90E0909393018093AA
:10146000920110929501109296011092970110929C
:10147000980184E291E09093200280931F028AE019
:1014800080932D0289E080932E0210921A0210920E
:10149000190210921C0210921B0210921E0210924E
:1014A0001D0261E070E080E090E00E94DC0B00979C
:1014B00089F090931A028093190210921C021092E4
:1014C0001B0220911D0230911E02232BC1F4FC014E
:1014D000108215C08091190290911A02009711F0A4
:1014E0000E94440B10921A021092190210921E02CE
:1014F00010921D0210921C0210921B02089510926D
:101500001E0210921D026BE571E00C94B40CA1E276
:101510001A2EAA1BBB1BFD010DC0AA1FBB1FEE1F6D
:10152000FF1FA217B307E407F50720F0A21BB30BB8
:10153000E40BF50B661F771F881F991F1A9469F734
:1015400060957095809590959B01AC01BD01CF0190
:101550000895EE0FFF1F0590F491E02D0994CF93AD
:10156000DF938230910510F482E090E0E091310247
:10157000F091320220E030E0C0E0D0E0309711F18D
:101580004081518148175907C0F04817590761F445
:1015900082819381209719F09B838A832BC090933B
:1015A00032028093310226C02115310519F042170D
:1015B000530718F49A01BE01DF01EF010280F381A5
:1015C000E02DDCCF2115310509F1281B390B243022
:1015D000310590F412968D919C91139761157105C8
:1015E00021F0FB019383828304C0909332028093A5
:1015F0003102FD01329644C0FD01E20FF31F8193D9
:101600009193225031092D933C933AC020912F029F
:1016100030913002232B41F42091020130910301DB
:101620003093300220932F0220910001309101016C
:101630002115310541F42DB73EB740910401509179
:101640000501241B350BE0912F02F0913002E217C7
:10165000F307A0F42E1B3F0B2817390778F0AC01D5
:101660004E5F5F4F2417350748F04E0F5F1F5093B2
:10167000300240932F028193919302C0E0E0F0E0AA
:10168000CF01DF91CF9108950F931F93CF93DF93F5
:10169000009709F48CC0FC013297138212820091EA
:1016A0003102109132020115110581F4208131813E
:1016B000820F931F20912F02309130022817390793
:1016C00079F5F0933002E0932F0271C0D80140E029
:1016D00050E0AE17BF0750F412962D913C9113972E
:1016E000AD012115310509F1D901F3CF9D01DA01D1
:1016F0003383228360817181860F971F821793073E
:1017000069F4EC0128813981260F371F2E5F3F4F86
:10171000318320838A819B8193838283452B29F4A3
:10172000F0933202E093310242C01396FC93EE93A1
:101730001297ED01499159919E01240F351FE2172F
:10174000F30771F480819181840F951F02961196A1
:101750009C938E938281938113969C938E93129780
:10176000E0E0F0E0D80112968D919C9113970097DC
:1017700019F0F8018C01F6CF8D919C9198012E5FA4
:101780003F4F820F931F20912F0230913002281774
:10179000390769F4309729F410923202109231021D
:1017A00002C0138212821093300200932F02DF9145
:1017B000CF911F910F910895A0E0B0E0E2EEFBE021
:1017C0000C94BF0CEC01009721F4CB010E94AF0AEE
:1017D000B8C0FC01E60FF71F9C0122503109E21747
:1017E000F30708F4ACC0D9010D911C9111970617AD
:1017F0001707B0F00530110508F49FC0C801049721
:101800008617970708F499C002501109061B170B99
:10181000019311936D937C93CF010E94440B8DC073
:101820005B01A01AB10A4C01800E911EA0913102F9
:10183000B091320240E050E0E12CF12C109709F415
:101840004AC0A815B905D1F56D907C901197630138
:1018500082E0C80ED11CCA14DB0480F1A3014A192E
:101860005B096A0182E0C80ED11C1296BC901297E7
:101870001396AC91B5E0CB16D10440F0B282A383AD
:1018800051834083D9016D937C930AC00E5F1F4F33
:10189000C301800F911FF90191838083EB2DFA2FF3
:1018A000E114F10431F0D7011396FC93EE931297F3
:1018B00044C0F0933202E09331023FC08D919C917D
:1018C00011974817590708F4AC017D0112960D9045
:1018D000BC91A02DB3CF80912F029091300288153A
:1018E0009905E1F446175707C8F4809100019091DB
:1018F0000101009741F48DB79EB7409104015091CA
:101900000501841B950BE817F907C8F4F093300222
:10191000E0932F02F901718360830FC0CB010E9415
:10192000AF0A7C01009759F0A801BE010E94AB0CE0
:10193000CE010E94440BC70104C0CE0102C080E06A
:1019400090E0CDB7DEB7EEE00C94DB0C81E090E0E8
:10195000F8940C94F20CFB01DC0102C001900D9292
:1019600041505040D8F70895FB01DC0101900D92E1
:101970000020E1F708952F923F924F925F926F926D
:101980007F928F929F92AF92BF92CF92DF92EF920F
:10199000FF920F931F93CF93DF93CDB7DEB7CA1B90
:1019A000DB0B0FB6F894DEBF0FBECDBF09942A88BB
:1019B000398848885F846E847D848C849B84AA8463
:1019C000B984C884DF80EE80FD800C811B81AA81F0
:1019D000B981CE0FD11D0FB6F894DEBF0FBECDBFBB
:1019E000ED01089510E0C2E6D0E004C0FE010E94BF
:0E19F000A90A2196C336D107C9F7F894FFCF94
:1019FE000000330280007202DE24441AA339000074
:101A0E00000024018D00BC006B01ED00CB00DF0057
:101A1E00000000006E03BD0297014C4142454C2C64
:101A2E00446174652C49442C54696D6520494E2CD3
:101A3E0054696D65204F555400444154412C444126
:0C1A4E0054452C0054494D45000D0A0081
:00000001FF
