:100000000C946C000C9494000C9494000C94D80301
:100010000C94D8030C94D8030C9494000C94940082
:100020000C9494000C9494000C9494000C94940000
:100030000C9494000C9494000C9494000C949400F0
:100040000C9401070C9494000C94A6030C94800368
:100050000C9494000C9494000C9494000C949400D0
:100060000C9494000C949400C706CC06D706D706CF
:10007000D706D706DC06DE06E106000000002400F5
:1000800027002A0000000008000201000003040706
:100090000000000000000000000000002300260017
:1000A000290000000000250028002B00040404049F
:1000B0000404040402020202020203030303030312
:1000C00001020408102040800102040810200102EF
:1000D00004081020A90A930A11241FBECFEFD8E00C
:1000E000DEBFCDBF12E0A0E0B1E0E0EFF6E102C07C
:1000F00005900D92A432B107D9F723E0A4E2B2E053
:1001000001C01D92A737B207E1F710E0CBE6D0E0BF
:1001100004C02197FE010E944C0BCA36D107C9F7D3
:100120000E944B070C946B0B0C940000CF92DF9253
:10013000EF92FF920F931F93CF93DF936C017A019D
:100140008B01C0E0D0E0CE15DF0581F0D8016D91C4
:100150008D01D601ED91FC910190F081E02DC60159
:100160000995892B11F02196EECF7E01C701DF9111
:10017000CF911F910F91FF90EF90DF90CF90089556
:10018000FC01538D448D252F30E0842F90E0821B9D
:10019000930B541710F0CF96089501970895FC0122
:1001A000918D828D981761F0828DDF01A80FB11DAE
:1001B0005D968C91928D9F5F9F73928F90E00895D2
:1001C0008FEF9FEF0895FC01918D828D981731F08C
:1001D000828DE80FF11D858D90E008958FEF9FEFE0
:1001E0000895FC01918D228D892F90E0805C9F4FB6
:1001F000821B91098F73992708958BE692E00E94E4
:10020000F10021E0892B09F420E0822F0895FC0100
:10021000848DDF01A80FB11DA35ABF4F2C91848D8F
:1002200090E001968F739927848FA689B7892C93C4
:10023000A089B1898C91837080648C93938D848D17
:10024000981306C00288F389E02D80818F7D80831A
:100250000895EF92FF920F931F93CF93DF93EC01DA
:1002600081E0888F9B8D8C8D981305C0E889F98972
:10027000808185FD26C0F62E0B8D10E00F5F1F4F8D
:100280000F731127E02E8C8DE8120CC00FB607FCFF
:10029000FACFE889F989808185FFF5CFCE010E94E8
:1002A0000701F1CF8B8DFE01E80FF11DE35AFF4FDF
:1002B000F0829FB7F8940B8FEA89FB898081806276
:1002C0000AC09FB7F894EE89FF896083E889F989AD
:1002D00080818370806480839FBF81E090E0DF91A4
:1002E000CF911F910F91FF90EF900895CF93DF93DF
:1002F000EC01888D8823C9F0EA89FB89808185FD1E
:1003000005C0A889B9898C9186FD0FC00FB607FC7E
:10031000F5CF808185FFF2CFA889B9898C9185FFBF
:10032000EDCFCE010E940701E7CFDF91CF91089575
:1003300080E090E0892B29F00E94FD0081110C944F
:10034000000008952091660230916702281739074E
:1003500071F49091650280916402981741F0E091E8
:100360006502F0E0EC5DFD4F808190E008958FEF35
:100370009FEF089508951F93CF93DF93DC015C9660
:100380008D919C915D97009739F421E030E01396B0
:100390003C932E9312973BC05196ED91FC9152974E
:1003A00050962C915097322F30951FB75E964C91F6
:1003B0005E97742F727041FD6095F89440817723A9
:1003C00011F0422B01C043234083EC012197F1F748
:1003D00048E0508160FF02C0522B01C0532350837C
:1003E000EC012197F1F76695415099F780817723C9
:1003F00019F08323808302C0282B20831FBF5C96C3
:100400008D919C915D970197F1F781E090E0DF91EC
:10041000CF911F91089520916602309167022817AD
:10042000390771F4809164022091650290E0805C4C
:100430009F4F821B910960E470E00E94F70A0895C3
:1004400080E090E0089520916602309167022817BD
:100450003907B9F49091650280916402981789F088
:10046000E0916502F0E0EC5DFD4F80812091650236
:1004700030E02F5F3F4F2F7333272093650290E0CA
:1004800008958FEF9FEF0895E0916602F091670263
:10049000E817F90769F4A389B4899C918589809547
:1004A00089238C93109267021092660281E008956E
:1004B00080E00895CF93DF93EC019A01AB011B8E8E
:1004C0001A8E198E188E1F8A1E8A60E079E08DE3DD
:1004D00090E00E942D0BF9012430310518F0C9017C
:1004E000039702C081E090E09D8F8C8F6C85663110
:1004F00008F069C0C901969587958431910510F07F
:10050000439702C081E090E09F8B8E8B369718F066
:10051000C901059702C081E090E0998F888FC901D9
:10052000880F991F280F391F3695279536952795DF
:100530002D30310518F02C50310902C021E030E097
:100540003B8F2A8F90916800683050F021E06E3028
:1005500008F420E081E001C0880F2A95EAF701C085
:1005600084E0892B809368009C85983038F09E3019
:1005700040F0963148F020E030E008C02DE630E051
:1005800005C02BE630E002C02CE630E03C8B2B8B24
:10059000983030F481E001C0880F9A95EAF70EC0D8
:1005A000292F30E09E3018F42850310902C02E5017
:1005B000310981E001C0880F2A95EAF78D8B8C8D77
:1005C0009D8D0197F1F78A8D9B8D892BE1F08091AC
:1005D000660290916702C817D907A9F0009711F039
:1005E0000E9444028E8D8E7F8E8F10926402109234
:1005F0006502D0936702C0936602EB89FC89908103
:100600008D89892B8083DF91CF910895089580E0B3
:1006100090E008950E94660B6115710579F0FB0169
:1006200001900020E9F73197AF01461B570BDC0121
:10063000ED91FC910280F381E02D099480E090E03F
:1006400008950F931F93CF93DF93EC010E940C0347
:100650008C016AE271E0CE010E940C03800F911FB1
:10066000DF91CF911F910F9108950C940C038F92FD
:100670009F92AF92BF92EF92FF920F931F93CF93EF
:10068000DF93CDB7DEB7A1970FB6F894DEBF0FBEEC
:10069000CDBF7C01FA01CB0119A2223008F42AE077
:1006A0008E010F5D1F4F822E912CA12CB12CBF010A
:1006B000A50194010E940B0BF901CA010150110917
:1006C0006A3014F4605D01C0695CD8016C93232B1F
:1006D000242B252B61F7B801C7010E940C03A196BA
:1006E0000FB6F894DEBF0FBECDBFDF91CF911F9143
:1006F0000F91FF90EF90BF90AF909F908F900895D3
:100700001F920F920FB60F9211242F933F934F9386
:100710005F936F937F938F939F93AF93BF93EF9369
:10072000FF938BE692E00E940701FF91EF91BF914A
:10073000AF919F918F917F916F915F914F913F9179
:100740002F910F900FBE0F901F9018951F920F9230
:100750000FB60F9211242F938F939F93EF93FF93D4
:10076000E0917B02F0917C028081E0918102F09126
:10077000820282FD12C09081809184028F5F8F730C
:1007800020918502821751F0E0918402F0E0E55952
:10079000FD4F958F8093840201C08081FF91EF917E
:1007A0009F918F912F910F900FBE0F901F901895D2
:1007B0001F920F920FB60F9211242F933F934F93D6
:1007C0005F936F937F938F939F93AF93BF93EF93B9
:1007D000FF93E0916602F0916702309709F451C0EF
:1007E000968DA685B785858591FF04C09C91892348
:1007F00029F447C09C91892309F043C0A389B48997
:100800009C918589809589238C9386899789019706
:10081000F1F7608D718DA685B785558538E020E0AC
:10082000CB010197F1F7822F90E095958795282FBE
:100830004C91452309F02068315091F7868D81FD58
:1008400020958091640290E001968F7399273091F2
:100850006502381749F0A0916402B0E0AC5DBD4F6D
:100860002C938093640203C0868D8160868F828D75
:10087000938D0197F1F7A389B4899C918589892B80
:100880008C93FF91EF91BF91AF919F918F917F9149
:100890006F915F914F913F912F910F900FBE0F90ED
:1008A0001F9018953FB7F89480917303909174034B
:1008B000A0917503B091760326B5A89B05C02F3F84
:1008C00019F00196A11DB11D3FBFBA2FA92F982F76
:1008D0008827820F911DA11DB11DBC01CD0142E0F1
:1008E000660F771F881F991F4A95D1F70895DF92E9
:1008F000EF92FF920F931F93CF93DF93EC018091C0
:100900002A0390912B036981DC01ED91FC91019008
:10091000F081E02D099580912A0390912B03DC0151
:10092000ED91FC910190F081E02D68810995809115
:100930002A0390912B03DC01ED91FC910190F08151
:10094000E02D6A81099580912A0390912B03DC01A7
:10095000ED91FC910190F081E02D6B8109958091E2
:100960002A0390912B03DC01ED91FC910190F08121
:10097000E02D6C81099580912A0390912B03DC0175
:10098000ED91FC910190F081E02D6D8109958091B0
:100990002A0390912B03DC01ED91FC910190F081F1
:1009A000E02D6E810995EF80F884B2E0EB0EF11C2A
:1009B00080912A0390912B030F2D1127DC01ED91DB
:1009C000FC910190F081E02D602F099580912A0320
:1009D00090912B03DC01ED91FC910190F081E02DD1
:1009E0006E2D09950E0D111D8E81080F111DD12C34
:1009F000ED2CF12C2F81388580912A0390912B03C7
:100A0000E216F30690F4EC0EFD1EDC01ED91FC9174
:100A10000190F081E02DD70119966C910995F701AD
:100A20008185080F111DD394E3CFDC01ED91FC917A
:100A30000190F081E02D612F099580912A0390911A
:100A40002B03DC01ED91FC910190F081E02D602FF2
:100A5000DF91CF911F910F91FF90EF90DF9009945C
:100A6000CF92DF92EF92FF92CF93DF936C01990FB9
:100A7000EE08FF08F7FE1BC06DE280E393E00E94E2
:100A8000BB01EC0144275527BA014C195D096E09D9
:100A90007F092AE080E393E00E9437038C0F9D1FBB
:100AA000DF91CF91FF90EF90DF90CF9008952AE0F3
:100AB000B701A60180E393E0DF91CF91FF90EF9023
:100AC000DF90CF900C94370390E0FC01EC57FF4F80
:100AD0002491FC01E054FF4F3491FC01E455FF4F99
:100AE000E491EE2309F43CC0222339F1233091F044
:100AF00038F42130A9F0223001F584B58F7D12C081
:100B0000273091F02830A1F02430B9F48091800092
:100B10008F7D03C0809180008F77809380000DC00F
:100B200084B58F7784BD09C08091B0008F7703C0F2
:100B30008091B0008F7D8093B000F0E0EE0FFF1F3A
:100B4000EE55FF4FA591B4919FB7F894611104C081
:100B50008C913095382302C0EC913E2B3C939FBF83
:100B60000895CF93DF9390E0FC01E054FF4F249170
:100B7000FC01E455FF4F8491882361F190E0880FD8
:100B8000991FFC01E658FF4FC591D491FC01EE5529
:100B9000FF4FA591B491611109C09FB7F894888166
:100BA000209582238883EC912E230BC0623061F460
:100BB0009FB7F8948881322F309583238883EC91F6
:100BC0002E2B2C939FBF06C08FB7F894E8812E2B55
:100BD00028838FBFDF91CF9108950F931F93CF93F9
:100BE000DF93EC01162F042F1B821A8288EE93E00C
:100BF000A0E0B0E08C839D83AE83BF838AE091E068
:100C0000998388831F8A1E8A198E188E1B8E1A8ECE
:100C10001D8E1C8E6E8D6E7F6D7F6E8F66956170E2
:100C200081E06827842F0E94640561E0802F0E9484
:100C3000B105802F90E0FC01E054FF4FE491E88B78
:100C4000FC01E455FF4FE491F0E0EE0FFF1FEE557D
:100C5000FF4F859194919A8B898B60E0812F0E9440
:100C6000B1058E8D81FD04C061E0812F0E94640575
:100C70001C87812F90E0FC01E054FF4FE491ED8749
:100C8000FC01E455FF4FE491F0E0EE0FFF1FE85642
:100C9000FF4F859194919F878E87DF91CF911F9110
:100CA0000F9108958F929F92AF92BF92CF92DF9251
:100CB000EF92FF926B017C010E9452044B015C0198
:100CC000C114D104E104F104F1F00E945204DC01EA
:100CD000CB0188199909AA09BB09883E9340A1054F
:100CE000B10570F321E0C21AD108E108F10888EEDD
:100CF000880E83E0981EA11CB11CC114D104E1042C
:100D0000F10419F7DDCFFF90EF90DF90CF90BF9007
:100D1000AF909F908F900895EF92FF920F931F9343
:100D2000CF93DF93EC01E12CF12C00E010E08091F7
:100D30002A0390912B03DC01ED91FC910084F18555
:100D4000E02D0995892B81F461E070E080E090E06E
:100D50000E945206BFEFEB1AFB0A28EEE21623E0D0
:100D6000F20628F38FEF46C080912A0390912B035F
:100D7000DC01ED91FC910284F385E02D09950930A9
:100D8000110538F5F801EC5CFF4F0C944C0B8F3ECD
:100D900071F61882898328C028813981A901482BDE
:100DA000CA019983888381309F4EF1F020C0FE01F3
:100DB000E00FF11F808318C08E8316C01F828887C2
:100DC00013C02F813885D901A82BCD0198878F8337
:100DD0000BC0FE01E00FF11F80832F813885C80111
:100DE00008978217930729F00F5F1F4FA0CF8EEF50
:100DF00001C080E0DF91CF911F910F91FF90EF90A4
:100E000008951F920F920FB60F9211242F933F93C4
:100E10008F939F93AF93BF9380916F0390917003D3
:100E2000A0917103B091720330916E0323E0230F00
:100E30002D3720F40196A11DB11D05C026E8230F12
:100E40000296A11DB11D20936E0380936F039093B2
:100E50007003A0937103B093720380917303909118
:100E60007403A0917503B09176030196A11DB11D85
:100E70008093730390937403A0937503B0937603E8
:100E8000BF91AF919F918F913F912F910F900FBE86
:100E90000F901F901895CF93DF93CDB7DEB7CF5447
:100EA000D1090FB6F894DEBF0FBECDBF789484B5DC
:100EB000826084BD84B5816084BD85B5826085BD56
:100EC00085B5816085BD80916E00816080936E00E4
:100ED00010928100809181008260809381008091D6
:100EE0008100816080938100809180008160809387
:100EF00080008091B10084608093B1008091B00047
:100F000081608093B00080917A00846080937A0041
:100F100080917A00826080937A0080917A0081606B
:100F200080937A0080917A00806880937A00109292
:100F3000C100E0917B02F0917C0282E08083E0912D
:100F40007702F09178021082E0917902F0917A02B2
:100F50008FEC808310928302E0917F02F0918002F7
:100F600086E08083E0917D02F0917E028081806145
:100F70008083E0917D02F0917E0280818860808391
:100F8000E0917D02F0917E02808180688083E09113
:100F90007D02F0917E0280818F7D808340E855E262
:100FA00060E070E080E393E00E945A021FB7F8947B
:100FB00080916802811127C0E6EBF0E08491EAECB1
:100FC000F0E09491E82FF0E0EE0FFF1FE658FF4F9E
:100FD000A591B491EC91E92321F461E08AE00E94AB
:100FE000640561E08AE00E94B1058CB580618CBD2A
:100FF0008CB580648CBD61E08DE00E94B10561E03C
:101000008BE00E94B105809168028F5F8093680237
:101010001FBF64E670E080E090E00E9452066DE23F
:1010200071E08BE692E00E94210364E670E080E0CC
:1010300090E00E9452066BE471E08BE692E00E9421
:10104000210361E088E00E94B10560E088E00E9431
:10105000640568EE73E080E090E00E945206E09143
:101060002E03F0912F03309741F1A089B18982E0DE
:101070008C93A089B1891C92A485B5851C92A68504
:10108000B78580E18C93108EA489B58986E08C9316
:10109000A289B3898C9180618C93A289B3898C9148
:1010A00088608C93A289B3898C9180688C93028824
:1010B000F389E02D80818F7D808380912C03909136
:1010C0002D03009731F040E051EE60E070E00E94A7
:1010D0005A0280910E0390910F03209110033091DA
:1010E0001103EE24E3945FEEF52EFA82E98201E02B
:1010F0000F8345E050E0598748871FEF1B831C830F
:101100001D831E8343E14A873B872C879D878E87FB
:10111000CE0101960E947704CE0101960E948C06B2
:10112000811165C08F81873009F061C08A85811186
:101130005EC06CE671E08BE692E00E942103FA82C9
:10114000E9820F8381E090E0998788871B831C8365
:101150001D831E838DE18A87CE0101960E9477044C
:10116000CE0101960E948C0681110CC08F818730C0
:1011700049F48B859C8598278927982790930D03A0
:1011800080930C0366E871E08BE692E00E943503E1
:1011900040910C0350910D0360E070E02AE08BE673
:1011A00092E00E94370367E971E08BE692E00E94CB
:1011B000210362EA71E08BE692E00E9421036BE476
:1011C00071E080E393E00E942103EE24E3948FEE2C
:1011D000F82E01E0CC24C394D12C1FEF22E0A22EE4
:1011E000B12C32E0732E46E0842E912C6FC06EEB52
:1011F00071E08BE692E00E94210361E070E080E004
:1012000090E00E945206F9CF8F81873009F474C0B4
:1012100062E370E080E090E00E9452068091080353
:10122000909109038130910509F4EEC08091080383
:10123000909109038230910509F425C1809108033A
:10124000909109038330910509F05CC120910A0354
:1012500030910B032233310508F454C190936A0294
:101260008093690261E072E080E393E00E943503BD
:101270008091690290916A020E9430056AE072E0F2
:1012800080E393E00E9435036CE072E080E393E03A
:101290000E9435036AE072E080E393E00E94350328
:1012A0006CE271E080E393E00E94210361E088E05A
:1012B0000E94640564EF71E080E090E00E945206B5
:1012C00010920903109208030E949801FA82E982A1
:1012D0000F83D986C8861B831C831D831E830A87C0
:1012E000CE0101960E947704CE0101960E948C06E1
:1012F000882309F489CF8CCF8A85811189CFFA821E
:10130000E9820F83B986A8861B831C831D831E83F5
:101310007A860B87CE0101960E947704CE01019652
:101320000E948C06811174CF8F81873009F070CFB5
:101330008A8581116DCF86E0E0E0F1E0DE01A65BF9
:10134000BF4F01900D928A95E1F7FA82E9820F83EF
:10135000998688861B831C831D831E8386E0FE017D
:10136000E65BFF4FDE011A9601900D928A95E1F738
:10137000CE0101960E947704CE0101960E948C0650
:10138000811146CF8F81873009F042CF8B859C85B4
:1013900098278927982790930903809308038D85C0
:1013A0009E8598278927982790930B0380930A039B
:1013B0008A8581112DCF61EE71E08BE692E00E946B
:1013C0003503409108035091090360E070E02AE082
:1013D0008BE692E00E9437036CEE71E08BE692E0C0
:1013E0000E94350340910A0350910B0360E070E0C6
:1013F0002AE08BE692E00E9437036AE271E08BE616
:1014000092E00E940C0304CF20910A0330910B0359
:101410002C33310508F40ACF90936A028093690255
:1014200061E072E080E393E00E94350380916902FD
:1014300090916A020E9430056AE072E080E393E0D6
:101440000E9435036CE072E080E393E00E94350374
:101450006AE072E080E393E00E9435036CE271E0A1
:1014600080E393E00E94210361E088E00E9464052C
:1014700064EF71E080E090E00E9452061092090350
:1014800010920803D3CE20910A0330910B0322332C
:10149000310508F4D3CE90936A028093690261E02B
:1014A00072E080E393E00E9435038091690290919D
:1014B0006A020E9430056AE072E080E393E00E94D5
:1014C00035036CE072E080E393E00E9435036AE04C
:1014D00072E080E393E00E9435036CE271E080E308
:1014E00093E00E94210361E088E00E94640564EFBC
:1014F00071E080E090E00E94520610920903109281
:1015000008039CCE61E172E08BE692E00E94210329
:1015100064E670E080E090E00E94520660E088E0BF
:101520000E946405D1CECF93DF93CAE0D1E0D0937F
:101530003103C093300380E393E00E944402D093D0
:101540005003C0934F038FE493E0DF91CF910C944D
:101550004402EBE6F2E01382128288EE93E0A0E010
:10156000B0E084839583A683B7838CE191E0918377
:10157000808385EC90E09587848784EC90E0978762
:10158000868780EC90E0918B808B81EC90E0938B50
:10159000828B82EC90E0958B848B86EC90E0978B2D
:1015A000868B118E128E138E148E43E062E08FE4D0
:1015B00093E00E94ED054AE069E080E393E00E9439
:1015C000ED05E8E0F3E016821782108611868FEFB2
:1015D0009FEFDC0182879387A487B58717A216A2A5
:1015E0008FE493E095A384A393A382A3089597FB2C
:1015F000072E16F4009407D077FD09D00E94520BF5
:1016000007FC05D03EF4909581959F4F0895709505
:1016100061957F4F0895A1E21A2EAA1BBB1BFD0105
:101620000DC0AA1FBB1FEE1FFF1FA217B307E407C1
:10163000F50720F0A21BB30BE40BF50B661F771F19
:10164000881F991F1A9469F76095709580959095F9
:101650009B01AC01BD01CF010895052E97FB1EF43F
:1016600000940E94440B57FD07D00E940B0B07FC0F
:1016700003D04EF40C94440B509540953095219531
:101680003F4F4F4F5F4F08959095809570956195AE
:101690007F4F8F4F9F4F0895EE0FFF1F0590F491DE
:1016A000E02D0994AA1BBB1B51E107C0AA1FBB1F59
:1016B000A617B70710F0A61BB70B881F991F5A95DE
:1016C000A9F780959095BC01CD01089581E090E047
:1016D000F8940C946B0B10E0CBE6D0E004C0FE0154
:1016E0000E944C0B2196CC36D107C9F7F894FFCF56
:1016F0001B01000000A300000000BB0196000703CF
:10170000BA010B022302A201000000002901960089
:10171000C0007601F100CF00E3000D0A000A0A4183
:10172000646166727569742066696E6765722064AB
:101730006574656374207465737400322C4C414287
:10174000454C2C446174652C49442C54696D6520CA
:10175000494E2C54696D65204F555400466F756E87
:10176000642066696E6765727072696E7420736555
:101770006E736F72210053656E736F7220636F6EAC
:101780007461696E7320002074656D706C6174659E
:10179000730057616974696E6720666F72207661A5
:1017A0006C69642066696E6765722E2E2E0044692E
:1017B00064206E6F742066696E642066696E67656A
:1017C000727072696E742073656E736F72203A283E
:1017D00000466F756E6420494420230020776974A9
:1017E0006820636F6E666964656E6365206F66204E
:1017F00000444154412C444154452C0054494D452A
:10180000004E4F2046696E676572205072696E7493
:041810002021200073
:00000001FF
