:100000000C9462000C948A000C948A000C948A0070
:100010000C948A000C948A000C948A000C948A0038
:100020000C948A000C948A000C948A000C948A0028
:100030000C948A000C948A000C948A000C948A0018
:100040000C94DA060C948A000C944A070C9424074A
:100050000C948A000C948A000C948A000C948A00F8
:100060000C948A000C948A000000000023002600F3
:10007000290000000000240027002A0000000000E2
:10008000250028002B0004040404040404040202D4
:100090000202020203030303030301020408102007
:1000A0004080010204081020010204081020000012
:1000B0000008000201000003040700000000000027
:1000C00000007C0711241FBECFEFD8E0DEBFCDBFFC
:1000D00011E0A0E0B1E0E0E0F4E102C005900D9293
:1000E000A635B107D9F722E0A6E5B1E001C01D921F
:1000F000A931B207E1F710E0C2E6D0E004C02197D1
:10010000FE010E94F309C136D107C9F70E94B30767
:100110000C94FE090C940000833081F028F48130A7
:1001200099F08230A1F008958730A9F08830B9F0B5
:100130008430D1F4809180008F7D03C08091800055
:100140008F7780938000089584B58F7702C084B53F
:100150008F7D84BD08958091B0008F7703C080911A
:10016000B0008F7D8093B00008951F93CF93DF93ED
:10017000282F30E0F901E255FF4F8491F901E6564E
:10018000FF4FD491F901EA57FF4FC491CC23C9F036
:10019000162F81110E948C00EC2FF0E0EE0FFF1F54
:1001A000E458FF4FA591B4918FB7F894111105C091
:1001B0009C91ED2FE095E92302C0EC91ED2BEC939F
:1001C0008FBFDF91CF911F910895CF93DF9390E080
:1001D000FC01E656FF4F2491FC01EA57FF4F849142
:1001E000882361F190E0880F991FFC01EE58FF4FC2
:1001F000C591D491FC01E458FF4FA591B4916111D0
:1002000009C09FB7F8948881209582238883EC9158
:100210002E230BC0623061F49FB7F8943881822F8F
:10022000809583238883EC912E2B2C939FBF06C04F
:100230008FB7F894E8812E2B28838FBFDF91CF9161
:1002400008953FB7F8948091680190916901A09159
:100250006A01B0916B0126B5A89B05C02F3F19F02C
:100260000196A11DB11D3FBFBA2FA92F982F882736
:10027000820F911DA11DB11DBC01CD0142E0660F91
:10028000771F881F991F4A95D1F708958F929F92E3
:10029000AF92BF92CF92DF92EF92FF926B017C01FF
:1002A0000E9421014B015C01C114D104E104F1045D
:1002B000F1F00E942101DC01CB0188199909AA09FA
:1002C000BB09883E9340A105B10570F321E0C21A35
:1002D000D108E108F10888EE880E83E0981EA11C81
:1002E000B11CC114D104E104F10419F7DDCFFF9072
:1002F000EF90DF90CF90BF90AF909F908F90089538
:10030000CF92DF92EF92FF920F931F93CF93DF93E1
:100310006C017A018B01C0E0D0E0CE15DF0589F0D9
:10032000D8016D918D01D601ED91FC910190F08184
:10033000E02DC6010995892B11F47E0102C021969A
:10034000ECCFC701DF91CF911F910F91FF90EF90FC
:10035000DF90CF900895089580E090E00895FC012B
:10036000538D448D252F30E0842F90E0821B930B1A
:10037000541710F0CF96089501970895FC01918DC0
:10038000828D981761F0828DDF01A80FB11D5D96F7
:100390008C91928D9F5F9F73928F90E008958FEF65
:1003A0009FEF0895FC01918D828D981731F0828D19
:1003B000E80FF11D858D90E008958FEF9FEF089570
:1003C000FC01918D228D892F90E0805C9F4F821BD4
:1003D00091098F73992708958CE691E00E94E001BE
:1003E00021E0892B09F420E0822F0895FC01848DFF
:1003F000DF01A80FB11DA35ABF4F2C91848D90E04F
:1004000001968F739927848FA689B7892C93A08929
:10041000B1898C9180648C93938D848D981306C0E0
:100420000288F389E02D80818F7D80830895EF928B
:10043000FF920F931F93CF93DF93EC0181E0888F9E
:100440009B8D8C8D981305C0E889F989808185FD85
:1004500024C0F62E0B8D10E00F5F1F4F0F73112776
:10046000E02E8C8DE8120CC00FB607FCFACFE8899D
:10047000F989808185FFF5CFCE010E94F601F1CF89
:100480008B8DFE01E80FF11DE35AFF4FF0820B8FB9
:10049000EA89FB898081806207C0EE89FF896083D9
:1004A000E889F98980818064808381E090E0DF9130
:1004B000CF911F910F91FF90EF900895CF93DF930D
:1004C000EC01888D8823C9F0EA89FB89808185FD4C
:1004D00005C0A889B9898C9186FD0FC00FB607FCAD
:1004E000F5CF808185FFF2CFA889B9898C9185FFEE
:1004F000EDCFCE010E94F601E7CFDF91CF910895B5
:1005000080E090E0892B29F00E94EC0181110C948D
:1005100000000895DC01ED91FD91BD010190F08195
:10052000E02D40E0099591E0811190E0892F089538
:1005300008958EBD00000DB407FEFDCF8EB5089561
:100540008CBD9DBD0895009769F0FC0101900020CD
:10055000E9F73197AF01481B590BBC018CE691E0DC
:100560000C94800180E090E008950C94A302CF9356
:10057000DF930E94A302EC0184E291E00E94A302B7
:100580008C0F9D1FDF91CF9108958F929F92AF9214
:10059000BF92CF92DF92EF92FF920F931F93CF9370
:1005A000DF93CDB7DEB7A1970FB6F894DEBF0FBECD
:1005B000CDBF6B017C0197FF31C0E0916C01F091E0
:1005C0006D010190F081E02D6DE28CE691E00995DE
:1005D0008C0122273327A9012C193D094E095F09F7
:1005E00019A2CE0181967C019AE0892E912CA12C32
:1005F000B12CCA01B901A50194010E94D109605D25
:10060000F70162937F01211531054105510589F7F5
:10061000CF010E94A302800F911F1DC09B01AC015E
:1006200019A28E010F5D1F4F8AE0C82ED12CE12C3C
:10063000F12CCA01B901A70196010E94D109605DA0
:10064000F80162938F01211531054105510589F7A4
:10065000CF010E94A302A1960FB6F894DEBF0FBE91
:10066000CDBFDF91CF911F910F91FF90EF90DF9061
:10067000CF90BF90AF909F908F9008951F93CF938E
:10068000DF93EC01162F83E590E00E94A00260E06A
:100690008E850E94B500812F80680E94990280E0BB
:1006A0000E949902182F61E08E850E94B500812F6B
:1006B000DF91CF911F910895CF92DF92EF92FF9239
:1006C0000F931F93CF93DF9300D0CDB7DEB78C018C
:1006D000F62E83E590E049835A830E94A00260E0F1
:1006E000F80186850E94B50082E10E949902498145
:1006F000E42EC42E5A81D52E8C2D8E198F1530F4F0
:10070000F60181916F010E949902F6CF61E0F80134
:1007100086850F900F90DF91CF911F910F91FF90E1
:10072000EF90DF90CF900C94B500EF92FF921F9363
:10073000CF93DF931F92CDB7DEB77C01162F83E5F1
:1007400090E049830E94A00260E0F70186850E9444
:10075000B500812F0E9499024981842F0E9499023D
:1007600061E0F70186850F90DF91CF911F91FF9097
:10077000EF900C94B5006F927F928F929F92AF9200
:10078000BF92CF92DF92EF92FF920F931F93CF937E
:10079000DF93EC014B01D42E59013801E114F1042F
:1007A00019F0F701808101C080E0182FF0E1CF9EA1
:1007B000100D112440E062E0CE010E9495034FE746
:1007C00068E0CE010E94950340E864E1CE010E94FA
:1007D0009503A4016D2DCE010E945C03412F6AE1B7
:1007E000CE010E9495034CE062E0CE010E94950389
:1007F0006AE1CE010E943E03482F40686AE1CE01C3
:100800000E94950300ED17E068E0CE010E943E03D0
:10081000982F907339F480FD03C001501109A1F79E
:1008200083E06EC06CE0CE010E943E03982E83717F
:1008300009F065C0A114B10409F459C06114710430
:1008400009F455C064E1CE010E943E03182FF30164
:100850008081811708F44FC010831123F1F183E5E3
:1008600090E00E94A00260E08E850E94B50082E9BF
:100870000E949902CC20A9F08FEF90E09C0102C069
:10088000220F331FCA94E2F7690182E90E9499029C
:100890008C21C094F5019081C922C82AC08201E050
:1008A00001C000E01150402F50E0011750F46501E5
:1008B000C40ED51E82E90E949902F60180830F5F63
:1008C000F2CF8501040F151F80E00E949902F80104
:1008D000808361E08E850E94B50068E1CE010E94B0
:1008E0003E038770E114F10411F0F701808393FC5B
:1008F00004C080E005C084E003C082E001C081E064
:10090000DF91CF911F910F91FF90EF90DF90CF90EB
:10091000BF90AF909F908F907F906F900895AF920F
:10092000BF92CF92EF92FF920F931F93CF93DF93DB
:1009300000D000D01F92CDB7DEB75C0182E08D837E
:1009400040E064E2C5010E94950340E066E2C50113
:100950000E94950346E268E4C5010E94950386E281
:100960008C838D81823038F16CE1C5010E943E0399
:10097000482F4F776CE1C5010E94950387E08B8378
:10098000C12CCE0103967C018E010B5F1F4F9E018F
:100990002F5F3F4F41E0BE016C5F7F4FC5010E945A
:1009A000BB0381110BC08D81823039F481E09B81C2
:1009B000911104C008C084E001C081E091E0823060
:1009C00019F090E001C091E0892F0F900F900F90E7
:1009D0000F900F90DF91CF911F910F91FF90EF90AB
:1009E000CF90BF90AF900895CF92DF92EF92FF9299
:1009F0000F931F93CF93DF93EC016B01142F7901B9
:100A000040E062E00E94950344E06AE0CE010E946B
:100A1000950340E864E1CE010E949503A601612F91
:100A2000CE010E945C0343E062E0CE010E94950388
:100A300008E813E16AE0CE010E943E0382FF13C082
:100A400040E062E0CE010E94950364E4CE010E9482
:100A50003E03F701808362E4CE010E943E03F7016A
:100A6000818380E004C00150110921F783E0DF9108
:100A7000CF911F910F91FF90EF90DF90CF9008954D
:100A80002F923F924F925F926F927F928F929F929E
:100A9000AF92BF92CF92DF92EF92FF920F931F938C
:100AA000CF93DF93CDB7DEB72D970FB6F894DEBFA7
:100AB0000FBECDBF413508F012C1342E4B015C0191
:100AC0006CE10E943E03482F4F776CE1C5010E9404
:100AD00095032224239444244394512C42E0241669
:100AE00091F083E02816E1F091E02912FCC083E93F
:100AF00089833320D1F081E0F4019081953008F4AE
:100B000080E0D12C17C085E98983332081F081E012
:100B1000F4019081983008F480E043E0D42E0AC0BC
:100B200087E9898336E0D32E04C0D12C02C023E0AC
:100B3000D22E80E0532DF8EFDF9E500D112457FD8B
:100B400050E0882321F098E89B8343E001C042E015
:100B500021E0952F977009F420E0952F95959595B4
:100B60009595290F29F4882309F497C0585F95C0FB
:100B7000811102C094E001C093E0291708F4922F7C
:100B800020E030E06D2D70E0E42FE20FA1E0B0E056
:100B9000AC0FBD1FAE0FB11DF901E60FF71FE80D39
:100BA000F91DE181EC932F5F3F4F291768F3DBCFED
:100BB0008111E5C050320CF098C050E240E74A8302
:100BC0009C818B8189279D8189279E8189278F839D
:100BD0009E01285F3F4F47E0BE016F5F7F4FC50119
:100BE0005D870E94F4045D858111C9C01B8683E086
:100BF0008A87FE0137963F0179E0CB844C2D4295E0
:100C0000407F4C0D6AE1C5015D877C870E9495039A
:100C1000CE010B967C018E01065F1F4F93017C85F0
:100C2000472FBE016F5F7F4FC5010E94BB035D85EB
:100C3000823009F0BDCF6CE1C5010E943E035D85A5
:100C400085FD4FC08F7109F480E2282F30E0452FD9
:100C5000550F550B421753070CF045C0582F822FE4
:100C600085958595859591E0980F422F477081E095
:100C700009F480E0890FE1E0F0E0EC0FFD1FE80FE0
:100C8000F11D2150310927703327C20101C0880F9F
:100C90002A95EAF79081892B808350320CF08ECF11
:100CA000952F97709B87252F25952595259582E073
:100CB000820F392FF0E18F9F300D11243A8371E0BC
:100CC000911101C070E0780F66246394712C6C0E52
:100CD0007D1E680E711C87E0821B8A878ECF86E09E
:100CE0004EC082E04CC085E04AC08B81883809F054
:100CF00043C033E023E080E090E06D2D70E0FC0124
:100D0000E60FF71FE80DF91D432F480FA1E0B0E0F3
:100D1000AC0FBD1FA40FB11D4C91418301968217EA
:100D200070F38A85833021F58B85811121C09E0166
:100D30002D5F3F4F41E0B301C5010E94F4048111D2
:100D40001EC09B81F3018181981314C09C81828114
:100D5000981310C0808182FF02C02394BFCEF4019B
:100D60008387822D880F280E2394208280E007C07D
:100D700081E005C087E003C032E024E0BCCF2D96BF
:100D80000FB6F894DEBF0FBECDBFDF91CF911F919C
:100D90000F91FF90EF90DF90CF90BF90AF909F901A
:100DA0008F907F906F905F904F903F902F9008951D
:100DB0000E94F9091F920F920FB60F9211242F93E0
:100DC0003F938F939F93AF93BF93809164019091D2
:100DD0006501A0916601B09167013091630123E044
:100DE000230F2D3720F40196A11DB11D05C026E863
:100DF000230F0296A11DB11D20936301809364010E
:100E000090936501A0936601B0936701809168019A
:100E100090916901A0916A01B0916B010196A11DA9
:100E2000B11D8093680190936901A0936A01B0930A
:100E30006B01BF91AF919F918F913F912F910F9037
:100E40000FBE0F901F9018951F920F920FB60F9222
:100E500011242F933F934F935F936F937F938F93BF
:100E60009F93AF93BF93EF93FF938CE691E00E9423
:100E7000F601FF91EF91BF91AF919F918F917F917B
:100E80006F915F914F913F912F910F900FBE0F90F7
:100E90001F9018951F920F920FB60F9211242F9347
:100EA0008F939F93EF93FF93E0917C01F0917D01ED
:100EB0008081E0918201F091830182FD12C09081D6
:100EC000809185018F5F8F7320918601821751F089
:100ED000E0918501F0E0E459FE4F958F8093850104
:100EE00001C08081FF91EF919F918F912F910F9081
:100EF0000FBE0F901F901895ECE6F1E0138212825E
:100F000088EE93E0A0E0B0E084839583A683B78366
:100F10008CE091E09183808385EC90E095878487D5
:100F200084EC90E09787868780EC90E0918B808BB3
:100F300081EC90E0938B828B82EC90E0958B848B9C
:100F400086EC90E0978B868B118E128E138E148E0A
:100F5000E9E0F2E08EE191E0918380838AE0868788
:100F600089E087870895789484B5826084BD84B5CC
:100F7000816084BD85B5826085BD85B5816085BD94
:100F800080916E00816080936E001092810080914C
:100F900081008260809381008091810081608093D4
:100FA0008100809180008160809380008091B100F9
:100FB00084608093B1008091B00081608093B00024
:100FC00080917A00846080937A0080917A008260B8
:100FD00080937A0080917A00816080937A0080917A
:100FE0007A00806880937A001092C100E0917C01C1
:100FF000F0917D0182E08083E0917801F0917901A8
:101000001082E0917A01F0917B018FEC8083109245
:101010008401E0918001F091810186E08083E0917C
:101020007E01F0917F01808180618083E0917E016B
:10103000F0917F01808188608083E0917E01F09152
:101040007F01808180688083E0917E01F0917F0143
:1010500080818F7D8083CFB7F89480915601811174
:1010600027C0E0E9F0E08491E4EAF0E09491E82F11
:10107000F0E0EE0FFF1FEE58FF4FA591B491EC91F9
:10108000E92321F461E08AE00E94B50061E08AE092
:101090000E94E5008CB580618CBD8CB580648CBDF0
:1010A00061E08DE00E94E50061E08BE00E94E500D8
:1010B000809156018F5F80935601CFBF61E0809190
:1010C00017020E94E50061E0809117020E94B500BE
:1010D000809118028F3F41F44FE062E089E092E096
:1010E0000E949503C3E025C060E00E94E5002091C6
:1010F000180230E0F901E255FF4F8491F901E656FC
:10110000FF4FD491F901EA57FF4FC491CC23F9F076
:1011100081110E948C00EC2FF0E0EE0FFF1FE859C8
:10112000FF4FA591B491EC91ED2389F0D5CFC1503B
:10113000F1F062E370E080E090E00E94460162E03E
:1011400089E092E00E943E0384FF11C0F0CF61E08D
:10115000809118020E94E50061E0809118020E94CF
:10116000B50062E370E080E090E00E94460140E05C
:1011700064E289E092E00E94950340E066E289E043
:1011800092E00E94950346E268E489E092E00E94C2
:10119000950340E864E589E092E00E94950349EAFE
:1011A00066E589E092E00E94950343E068E589E006
:1011B00092E00E94950348EE6AE589E092E00E9481
:1011C000950340E46AE289E092E00E9495034DE3D2
:1011D00062E289E092E00E94950368E289E092E091
:1011E0000E943E03982F9370933039F0482F43604C
:1011F00068E289E092E00E94950387E291E00E9414
:10120000B70261E086E00E94E50061E085E00E94AF
:10121000E50061E088E00E94E50068EC70E080E0B5
:1012200090E00E94460189E092E00E948F048823AA
:1012300009F4B4C089E092E00E948A02882309F48C
:10124000ADC0C0900B0240915B0150915C01609178
:101250005D0170915E019091590180915A01F09168
:101260005701E09158010FE511E0C4E0D1E020E022
:1012700030E02C15D8F5D901A75FBD4F1396DC904F
:10128000D801DD928D01F990DF14F9F0D901A05059
:10129000BF4FFC90DF1401F140935B0150935C0160
:1012A00060935D0170935E019093590180935A01A0
:1012B000F0935701E093580160E085E00E94B5008B
:1012C00061E086E00E94B5005BC090E080E041E014
:1012D00050E060E070E006C091E080E042E050E065
:1012E00060E070E02F5F3F4FFC01C3CF40935B0194
:1012F00050935C0160935D0170935E01909359017E
:1013000080935A01F0935701E093580186E491E0ED
:101310000E94B50260915B0170915C0180915D015A
:1013200090915E010E94C5028FE491E00E94B50297
:1013300081E591E00E94B5028FE491E00E94B50240
:1013400086E291E00E94B70261E085E00E94B5006C
:1013500060E086E00E94B50061E088E00E94B50090
:101360006EE170E080E090E00E94460160E088E07D
:101370000E94B50068EE73E080E090E00E944601B4
:1013800060ED77E080E090E00E94460160E085E05B
:101390000E94B50060E086E00E94B5000E948002D5
:1013A00042CFA1E21A2EAA1BBB1BFD010DC0AA1F32
:1013B000BB1FEE1FFF1FA217B307E407F50720F0BE
:1013C000A21BB30BE40BF50B661F771F881F991F39
:1013D0001A9469F760957095809590959B01AC0182
:1013E000BD01CF010895EE0FFF1F0590F491E02D90
:1013F000099481E090E0F8940C94FE09F894FFCFF2
:101400007202DE24441AA339000000001702800192
:10141000AF015E02E001BE01D20100000000400504
:101420008F048A020D0A004C4142454C2C446174E1
:10143000652C49442C54696D6520494E2C54696DC6
:1014400065204F555400444154412C444154452C8F
:061450000054494D450067
:00000001FF
